:020000040800F2
:1000000000000220452C0008DD2B0008DF2B000833
:10001000E12B0008E32B0008E52B0008000000009E
:10002000000000000000000000000000E72B0008B6
:10003000E92B000800000000EB2B0008ED2B000866
:10004000952C0008952C0008952C0008952C00088C
:10005000952C0008952C0008952C0008952C00087C
:10006000952C0008952C0008952C0008952C00086C
:10007000952C0008952C0008952C0008952C00085C
:10008000952C0008952C0008952C0008952C00084C
:10009000952C0008952C0008952C0008952C00083C
:1000A000952C0008952C0008952C0008952C00082C
:1000B000952C0008952C0008952C0008952C00081C
:1000C000952C0008952C0008952C0008952C00080C
:1000D000952C0008952C0008952C0008952C0008FC
:1000E000952C0008952C0008952C0008952C0008EC
:1000F000952C0008952C0008952C0008952C0008DC
:10010000952C0008952C0008952C0008952C0008CB
:10011000952C0008952C0008952C0008952C0008BB
:10012000952C0008952C0008952C0008952C0008AB
:10013000952C00080000000000000000952C00082D
:10014000952C0008952C0008952C0008952C00088B
:10015000952C0008952C0008952C0008952C00087B
:10016000952C0008952C0008952C0008952C00086B
:10017000952C0008952C0008952C00080000000024
:1001800000000000952C00080000000000000000A6
:10019000952C00080000000000000000952C0008CD
:1001A000000000000000000000000000952C000886
:1001B000952C0008952C0008952C0008952C00081B
:0401C000952C000872
:1001D00010B5054C237833B9044B13B10448AFF381
:1001E00000800123237010BDDC010020000000000E
:1001F000A84D000808B5034B1BB103490348AFF3F2
:10020000008008BD00000000E0010020A84D0008AB
:1002100081F0004102E000BF83F0004330B54FEAB7
:1002200041044FEA430594EA050F08BF90EA020F24
:100230001FBF54EA000C55EA020C7FEA645C7FEAB7
:10024000655C00F0E2804FEA5454D4EB5555B8BFDA
:100250006D420CDD2C4480EA020281EA030382EA4B
:10026000000083EA010180EA020281EA0303362DDD
:1002700088BF30BD11F0004F4FEA01314FF4801CB0
:100280004CEA113102D0404261EB410113F0004FC2
:100290004FEA03334CEA133302D0524263EB430379
:1002A00094EA050F00F0A780A4F10104D5F1200E17
:1002B0000DDB02FA0EFC22FA05F2801841F1000172
:1002C00003FA0EF2801843FA05F359410EE0A5F146
:1002D00020050EF1200E012A03FA0EFC28BF4CF077
:1002E000020C43FA05F3C01851EBE37101F000452D
:1002F00007D54FF0000EDCF1000C7EEB00006EEB3A
:100300000101B1F5801F1BD3B1F5001F0CD34908C3
:100310005FEA30004FEA3C0C04F101044FEA44521A
:1003200012F5800F80F09A80BCF1004F08BF5FEAA1
:10033000500C50F1000041EB045141EA050130BD81
:100340005FEA4C0C404141EB010111F4801FA4F124
:100350000104E9D191F0000F04BF01460020B1FA79
:1003600081F308BF2033A3F10B03B3F120020CDAB1
:100370000C3208DD02F1140CC2F10C0201FA0CF08F
:1003800021FA02F10CE002F11402D8BFC2F1200CF4
:1003900001FA02F120FA0CFCDCBF41EA0C019040AA
:1003A000E41AA2BF01EB0451294330BD6FEA0404F3
:1003B0001F3C1CDA0C340EDC04F11404C4F12002DE
:1003C00020FA04F001FA02F340EA030021FA04F3F0
:1003D00045EA030130BDC4F10C04C4F1200220FA47
:1003E00002F001FA04F340EA0300294630BD21FA85
:1003F00004F0294630BD94F0000F83F4801306BF4B
:1004000081F480110134013D4EE77FEA645C18BF3E
:100410007FEA655C29D094EA050F08BF90EA020FD5
:1004200005D054EA000C04BF1946104630BD91EACD
:10043000030F1EBF0021002030BD5FEA545C05D1D0
:100440004000494128BF41F0004130BD14F580040F
:100450003CBF01F5801130BD01F0004545F0FE4183
:1004600041F470014FF0000030BD7FEA645C1ABFB8
:10047000194610467FEA655C1CBF0B46024650EAEF
:10048000013406BF52EA033591EA030F41F400211B
:1004900030BD00BF90F0000F04BF0021704730B5A1
:1004A0004FF4806404F132044FF000054FF0000176
:1004B00050E700BF90F0000F04BF0021704730B537
:1004C0004FF4806404F1320410F0004548BF40420C
:1004D0004FF000013EE700BF42004FEAE2014FEA61
:1004E00031014FEA02701FBF12F07F4393F07F4F3C
:1004F00081F06051704732F07F4208BF704793F03F
:100500007F4F04BF41F40021704730B54FF4607451
:1005100001F0004521F000411CE700BF50EA010254
:1005200008BF704730B54FF000050AE050EA0102FD
:1005300008BF704730B511F0004502D5404261EB6D
:1005400041014FF4806404F132045FEA915C3FF4AE
:10055000D8AE4FF003025FEADC0C18BF03325FEA4B
:10056000DC0C18BF033202EBDC02C2F1200300FAFC
:1005700003FC20FA02F001FA03FE40EA0E0021FA21
:1005800002F11444BDE600BF70B54FF0FF0C4CF40F
:10059000E06C1CEA11541DBF1CEA135594EA0C0FC1
:1005A00095EA0C0F00F0DEF82C4481EA030621EAFC
:1005B0004C5123EA4C5350EA013518BF52EA033537
:1005C00041F4801143F4801338D0A0FB02CE4FF0E9
:1005D0000005E1FB02E506F00042E0FB03E54FF019
:1005E0000006E1FB03569CF0000F18BF4EF0010E11
:1005F000A4F1FF04B6F5007F64F5407404D25FEA0D
:100600004E0E6D4146EB060642EAC62141EA5551BF
:100610004FEAC52040EA5E504FEACE2EB4F1FD0C01
:1006200088BFBCF5E06F1ED8BEF1004F08BF5FEA7F
:10063000500E50F1000041EB045170BD06F0004631
:1006400046EA010140EA020081EA0301B4EB5C04DE
:10065000C2BFD4EB0C0541EA045170BD41F48011D6
:100660004FF0000E013C00F3AB8014F1360FDEBFFB
:10067000002001F0004170BDC4F10004203C35DAD7
:100680000C341BDC04F11404C4F1200500FA05F35A
:1006900020FA04F001FA05F240EA020001F00042FB
:1006A00021F0004110EBD37021FA04F642EB060171
:1006B0005EEA430E08BF20EAD37070BDC4F10C049B
:1006C000C4F1200500FA04F320FA05F001FA04F25F
:1006D00040EA020001F0004110EBD37041F100014B
:1006E0005EEA430E08BF20EAD37070BDC4F1200556
:1006F00000FA05F24EEA020E20FA04F301FA05F2BE
:1007000043EA020321FA04F001F0004121FA04F265
:1007100020EA020000EBD3705EEA430E08BF20EA35
:10072000D37070BD94F0000F0FD101F0004640006F
:1007300041EB010111F4801F08BF013CF7D041EAF1
:10074000060195F0000F18BF704703F000465200F5
:1007500043EB030313F4801F08BF013DF7D043EAC6
:100760000603704794EA0C0F0CEA135518BF95EA7C
:100770000C0F0CD050EA410618BF52EA4306D1D103
:1007800081EA030101F000414FF0000070BD50EA22
:10079000410606BF1046194652EA430619D094EAAC
:1007A0000C0F02D150EA013613D195EA0C0F05D196
:1007B00052EA03361CBF104619460AD181EA0301EA
:1007C00001F0004141F0FE4141F470014FF00000A2
:1007D00070BD41F0FE4141F4780170BD70B54FF03D
:1007E000FF0C4CF4E06C1CEA11541DBF1CEA1355BD
:1007F00094EA0C0F95EA0C0F00F0A7F8A4EB05049F
:1008000081EA030E52EA03354FEA013100F0888095
:100810004FEA03334FF0805545EA131343EA12635E
:100820004FEA022245EA111545EA10654FEA002613
:100830000EF000419D4208BF964244F1FD0404F5CC
:10084000407402D25B084FEA3202B61A65EB030528
:100850005B084FEA32024FF480104FF4002CB6EBE5
:10086000020E75EB030E22BFB61A754640EA0C0065
:100870005B084FEA3202B6EB020E75EB030E22BFA5
:10088000B61A754640EA5C005B084FEA3202B6EBE6
:10089000020E75EB030E22BFB61A754640EA9C00A5
:1008A0005B084FEA3202B6EB020E75EB030E22BF75
:1008B000B61A754640EADC0055EA060E18D04FEA33
:1008C000051545EA16754FEA06164FEAC30343EAD3
:1008D00052734FEAC2025FEA1C1CC0D111F4801FA0
:1008E0000BD141EA00014FF000004FF0004CB6E799
:1008F00011F4801F04BF01430020B4F1FD0C88BF38
:10090000BCF5E06F3FF6AFAEB5EB030C04BFB6EB42
:10091000020C5FEA500C50F1000041EB045170BD35
:100920000EF0004E4EEA113114EB5C04C2BFD4EB62
:100930000C0541EA045170BD41F480114FF0000EE6
:10094000013C90E645EA060E8DE60CEA135594EA62
:100950000C0F08BF95EA0C0F3FF43BAF94EA0C0F65
:100960000AD150EA01347FF434AF95EA0C0F7FF4DA
:1009700025AF104619462CE795EA0C0F06D152EA2E
:1009800003353FF4FDAE1046194622E750EA410612
:1009900018BF52EA43067FF4C5AE50EA41047FF423
:1009A0000DAF52EA43057FF4EBAE12E74FEA410286
:1009B000B2F1E04324BFB3F5001CDCF1FE5C0DD9BD
:1009C00001F0004C4FEAC0024CEA5070B2F1004F07
:1009D00040EB830008BF20F00100704711F0804F0A
:1009E00021D113F13872BCBF01F00040704741F4CF
:1009F00080114FEA5252C2F11802C2F1200C10FAD3
:100A00000CF320FA02F018BF40F001004FEAC123B6
:100A10004FEAD32303FA0CFC40EA0C0023FA02F35A
:100A20004FEA4303CCE77FEA625307D150EA013330
:100A30001EBF4FF0FE4040F44000704701F0004000
:100A400040F0FE4040F40000704700BF53B94AB97F
:100A5000002908BF00281CBF4FF0FF314FF0FF30C6
:100A600000F072B9ADF1080C6DE904CE00F006F8A3
:100A7000DDF804E0DDE9022304B070472DE9F0471A
:100A8000089E04468846002B4BD18A42154667D9FA
:100A9000B2FA82F24AB1C2F1200701FA02F320FA57
:100AA00007F7954047EA030894404FEA154E230C98
:100AB000B8FBFEF71FFA85FC0EFB178843EA0843D4
:100AC00007FB0CF1994209D9EB1807F1FF3080F0D0
:100AD0001B81994240F21881023F2B445B1AA4B259
:100AE000B3FBFEF00EFB103344EA034400FB0CFCA6
:100AF000A44509D92C1900F1FF3380F00781A445E2
:100B000040F2048102382C4440EA0740A4EB0C0474
:100B100000271EB1D4400023C6E900433946BDE892
:100B2000F0878B4209D9002E00F0EB800027C6E940
:100B3000000138463946BDE8F087B3FA83F7002F45
:100B400047D18B4202D3824200F2FA80841A61EBD1
:100B5000030301209846002EE0D0C6E90048DDE7F7
:100B600002B9FFDEB2FA82F2002A40F08F80491B00
:100B70004FEA154E1FFA85F80127B1FBFEFC230C46
:100B80000EFB1C1143EA014308FB0CF1994207D903
:100B9000EB180CF1FF3002D2994200F2CD8084466E
:100BA000591AA3B2B1FBFEF00EFB101443EA044441
:100BB00008FB00F8A04507D92C1900F1FF3302D239
:100BC000A04500F2B6801846A4EB080440EA0C40A9
:100BD0009FE7C7F1200CBB4022FA0CFE4EEA030E41
:100BE00001FA07F420FA0CF521FA0CF34FEA1E483B
:100BF0002543B3FBF8F92C0C08FB19331FFA8EFAC6
:100C000044EA034309FB0AF49C4202FA07F200FAA1
:100C100007F10BD91EEB030309F1FF3080F0878049
:100C20009C4240F28480A9F1020973441B1BADB2BF
:100C3000B3FBF8F008FB103345EA034400FB0AFA63
:100C4000A24508D91EEB040400F1FF336BD2A24584
:100C500069D90238744440EA0940A0FB0289A4EB38
:100C60000A044C45C2464B4654D351D0002E69D09D
:100C7000B1EB0A0564EB030404FA0CFCFD40FC40F4
:100C80004CEA0505C6E90054002747E7C2F12003F6
:100C900020FA03F7954001FA02F021FA03F34FEA34
:100CA000154E3843010CB3FBFEF71FFA85F80EFB17
:100CB000173341EA034107FB08F38B4204FA02F4BD
:100CC00007D9691807F1FF3C2FD28B422DD9023F7B
:100CD0002944CB1A81B2B3FBFEF00EFB103341EA7C
:100CE000034100FB08F38B4207D9691800F1FF3C70
:100CF00017D28B4215D902382944C91A40EA07474E
:100D00003BE73746304609E70746E7E61846FBE685
:100D10004145ABD2B8EB020A69EB0E02013813462B
:100D2000A4E76046E9E7184695E76746D1E78146BC
:100D30007CE702382C4447E7ACF1020C2B442FE748
:100D4000384608E73746E9E6704700BF034613F820
:100D5000012B002AFBD1181A01387047000000004F
:100D600001F0FF01102A2BDB10F0070F08D010F85C
:100D7000013B013A8B422DD010F0070F42B3F6D160
:100D8000F0B441EA012141EA014122F007047FF079
:100D900000070023F0E80256083C85EA010586EAD0
:100DA000010685FA47F5A3FA87F586FA47F6A5FA0C
:100DB00087F68EB9EED1F0BC01F0FF0102F0070218
:100DC00032B110F8013B013A83EA010313B1F8D1C3
:100DD0000020704701387047002D06BF35460338A4
:100DE000073815F0010F07D1013015F4807F02BFDD
:100DF000013015F4C03F0130F0BC0138704700BF2E
:100E00004FF0FF3C06E000BF4FF0010C02E000BFD6
:100E10004FF0010C4DF804CD4FEA410C7FEA6C5CB9
:100E20004FEA430C18BF7FEA6C5C1BD001B050EA5C
:100E3000410C0CBF52EA430C91EA030F02BF90EA47
:100E4000020F0020704710F1000F91EA030F58BF06
:100E5000994208BF90422CBFD8176FEAE37040F068
:100E6000010070474FEA410C7FEA6C5C02D150EA06
:100E7000013C07D14FEA430C7FEA6C5CD6D152EAC1
:100E8000033CD3D05DF8040B704700BF8446104686
:100E900062468C461946634600E000BF01B5FFF785
:100EA000B7FF002848BF10F1000F01BD4DF808ED55
:100EB000FFF7F4FF0CBF012000205DF808FB00BF26
:100EC0004DF808EDFFF7EAFF34BF012000205DF880
:100ED00008FB00BF4DF808EDFFF7E0FF94BF0120CD
:100EE00000205DF808FB00BF4DF808EDFFF7CEFFCE
:100EF00094BF012000205DF808FB00BF4DF808ED0D
:100F0000FFF7C4FF34BF012000205DF808FB00BFDD
:100F10004FEA410C7FEA6C5C02D150EA013C0AD1F5
:100F20004FEA430C7FEA6C5C02D152EA033C02D1E7
:100F30004FF0000070474FF0010070474FEA410248
:100F400012F5001215D211D56FF47873B3EB62521B
:100F500012D94FEAC12343F0004343EA505311F042
:100F6000004F23FA02F018BF404270474FF00000D4
:100F7000704750EA013005D111F0004008BF6FF012
:100F8000004070474FF00000704700BF10B50446A6
:100F90000E4B18784FF47A73B3FBF0F30C4A1068D9
:100FA000B0FBF3F000F09CF868B90F2C01D90120D8
:100FB0000AE0002221464FF0FF3000F05DF8034BBD
:100FC0005C60002000E0012010BD00BF0000002098
:100FD0000800002008B50B4B1A6842F400721A6032
:100FE0001A6842F480621A601A6842F480721A60C9
:100FF000032000F02FF80020FFF7C8FF01F050FD9C
:10100000002008BD003C0240034A1168034B1B78D6
:101010000B441360704700BF040200200000002052
:10102000014B1868704700BF0402002038B5044621
:10103000FFF7F6FF0546B4F1FF3F02D0044B1B78E3
:101040001C44FFF7EDFF401BA042FAD338BD00BFA0
:1010500000000020074AD36823F4E0631B041B0C44
:10106000000200F4E060184340F0BF6040F400303C
:10107000D060704700ED00E030B4174BDB68C3F37D
:101080000223C3F10704042C28BF04241D1D062DD0
:1010900018D9033B4FF0FF3505FA04F421EA0401A7
:1010A000994005FA03F322EA0303194300280BDBF6
:1010B0000901C9B200F1604000F5614080F80013F9
:1010C00030BC70470023E5E700F00F000901C9B20A
:1010D000024B1954F4E700BF00ED00E014ED00E00E
:1010E0000138B0F1807F0AD2064B5860064AF021E1
:1010F00082F823100020986007221A6070470120B0
:10110000704700BF10E000E000ED00E0042805D0CB
:10111000054A136823F0040313607047024A1368FA
:1011200043F004031360704710E000E0704708B517
:10113000FFF7FCFF08BD000000230F2B00F2D18059
:10114000F0B482B039E0062200E00022B2403A4317
:101150000234644E46F82420634A1468EA4302EAE3
:1011600004064F6817F4803F01D045EA04065E4C40
:101170002660646802EA04064F6817F4003F01D055
:1011800045EA0406584C6660A46802EA04064F6803
:1011900017F4801F01D045EA0406534CA660E468AA
:1011A00022404E6816F4001F01D045EA04024E4C5E
:1011B000E26001330F2B00F2918001229A400C680B
:1011C00004EA0205AA42F4D14C68022C01D0122C88
:1011D00010D1DE08083650F826C003F00704A70037
:1011E0000F24BC402CEA040C0C69BC4044EA0C04FB
:1011F00040F8264004685F000326BE40F64306EA36
:10120000040C4C6804F00304BC4044EA0C04046081
:101210004C6804F1FF3CBCF1010F03D9112C01D043
:10122000122C10D1846806EA040CCC68BC4044EA55
:101230000C048460446824EA02024C68C4F300147D
:101240009C4014434460C26816408A68BA403243E6
:10125000C2604A6812F0805FABD000220192234A3C
:10126000546C44F480445464526C02F48042019201
:10127000019A9C08A61C1B4A52F8267003F0030230
:1012800096000F22B24027EA0207194A90423FF423
:101290005CAF02F58062904216D002F58062904207
:1012A00014D002F58062904212D002F58062904222
:1012B00010D002F5806290420ED002F5806290421A
:1012C0003FF441AF072241E701223FE702223DE719
:1012D00003223BE7042239E7052237E702B0F0BCDE
:1012E0007047704700380140003C01400038024020
:1012F0000000024012B909048161704781617047A2
:1013000003685A6912F4806F0DD06FF480625A61DD
:101310000423036400230363202280F83D2080F827
:101320003C300120704700207047F8B506460C4657
:1013300017461D461EE02DB1FFF772FE069BC01A30
:10134000A84217D900233363202286F83D2086F86F
:101350003E3086F83C3003201AE033685B6924EAAB
:1013600003039BB2B3FA83F35B099F420FD1B5F13C
:10137000FF3FE0D1C4F30743012BEED033689B69F4
:1013800024EA03039BB2B3FA83F35B09EDE7002081
:10139000F8BDF8B504460D4616461F4632E01A68F9
:1013A00042F400721A6023686FF480625A61042369
:1013B000236400232363202284F83D2084F83C30FA
:1013C00001202DE026B1FFF72BFEC01BB04219D93A
:1013D00000232363202284F83D2084F83C3003203E
:1013E0001EE023685B6925EA03039BB2003318BF44
:1013F0000123A3B123685A6912F4806FCFD1B6F1EB
:10140000FF3FDFD1C5F30743012BEAD023689B6977
:1014100025EA03039BB2003318BF0123E9E700204C
:10142000F8BD0000F0B583B004460D4616461F46D1
:10143000C36A042B0DD0012B0BD013F5803F08D0CD
:10144000036B122B0AD10268136843F48073136094
:1014500004E02268136843F48073136000973346F6
:1014600000224FF001112046FFF75FFF58BB2369B0
:10147000B3F5804F10D1236805F0FE051D613B4692
:10148000324615492046FFF784FF0346E0B1236C3E
:10149000042B1ED1012317E0EB11226803F0060391
:1014A00043F0F00313613B4632460C492046FFF7F8
:1014B00070FF20B1236C042B09D1012304E02368C1
:1014C000EDB21D61DBE70323184603B0F0BD032333
:1014D000FAE70323F8E700BF02000100080001005B
:1014E00070B504460D46164623685B6913F0800FFD
:1014F00019D12046FFF704FFB8B9B5F1FF3FF3D08B
:1015000025B1FFF78DFD801BA842EDD9236C43F078
:101510002003236400232363202284F83D2084F8E1
:101520003C30032000E0002070BD0120FCE770B5D6
:1015300004460D46164623685B6913F0040F19D163
:101540002046FFF7DDFEB8B9B5F1FF3FF3D025B176
:10155000FFF766FD801BA842EDD9236C43F0200302
:10156000236400232363202284F83D2084F83C3048
:10157000032000E0002070BD0120FCE7002800F0FF
:10158000828010B5044690F83D30002B41D02423D2
:1015900084F83D302268136823F00103136000F0E3
:1015A0002FFA3A4BA3FB00239B0C2268536061681F
:1015B000374A914232D80133226813626368344A51
:1015C000934235D85B00B0FBF3F0C0F30B03032B61
:1015D00000D804202368D861E369216A22680B439C
:1015E00013602369E16822680B4393606369A16912
:1015F00022680B43D3602268136843F00103136031
:1016000000202064202384F83D30206384F83E00CD
:1016100010BD80F83C3001F08DFAB8E74FF49672B7
:1016200002FB03F31B4AA2FB03239B090133C3E71D
:10163000A16889B903EB4302B0FBF2F2C2F30B02DB
:10164000B2FA82F25209E2B991B903EB4303B0FB5B
:10165000F3F040F40040BDE703EB830202EB8202AB
:10166000B0FBF2F2C2F30B02B2FA82F25209EAE7DD
:1016700003EB830303EB8303B0FBF3F040F4404040
:10168000A8E70120A6E70120704700BF83DE1B43C7
:10169000A0860100D34D62102DE9F04184B00446CC
:1016A0000E4690461F46FFF7BBFC94F83D30DBB278
:1016B000202B04D00226304604B0BDE8F081054658
:1016C00000901923012254492046FFF72EFE0028DE
:1016D00040F0998094F83C30012B00F09680012373
:1016E00084F83C3023681A6812F0010F03D11A689D
:1016F00042F001021A602268136823F40063136049
:10170000212384F83D30102384F83E3000232364E5
:10171000C4F824806785A3F58033E362638D238555
:101720002B460A9A31462046FFF77CFE064660B1FA
:10173000236C042B04D1002384F83C300126BAE743
:10174000002384F83C300326B5E700230393236885
:101750005A6903929B690393039B10E0236C042B4B
:1017600055D12268136843F4007313600126A2E781
:101770002A460A992046FFF7DAFE00282BD1238D4E
:10178000002B32D02A460A992046FFF7A9FE0028EE
:10179000E4D1636A5A1C626222681B781361638D0C
:1017A000013B9BB26385238D013B9BB2238522685D
:1017B000516911F0040FDBD0002BD9D0636A591C9A
:1017C00061621B781361638D013B9BB26385238D3E
:1017D000013B2385CCE7236C042B1AD122681368C4
:1017E00043F400731360012665E72268136843F42D
:1017F00000731360202384F83D30002384F83E30CA
:1018000084F83C3057E7022655E7022653E70326C3
:1018100051E703264FE700BF0200100010B582B069
:1018200000230193194B1A6C42F080521A641B6C0E
:1018300003F080530193019B154B01221A60FFF7BF
:10184000EFFB0446134B5B6813F4803F08D1FFF7AE
:10185000E7FB001BB0F57A7FF4D9032002B010BD7E
:101860000D4B01221A60FFF7DBFB0446094B5B6856
:1018700013F4003F07D1FFF7D3FB001BB0F57A7FCD
:10188000F4D90320EAE70020E8E700BF003802406F
:1018900040000E420070004044000E42002800F05C
:1018A0009D8070B504464F4B1B6803F00F038B42BD
:1018B00009D2CBB24B4A1370136803F00F038B426B
:1018C00001D0012070BD236813F0020F17D013F070
:1018D000040F04D0444A936843F4E05393602368B0
:1018E00013F0080F04D0404A936843F460439360B8
:1018F0003D4A936823F0F003A068034393600D46CC
:10190000236813F0010F32D06368012B21D09A1E97
:10191000012A25D9344A126812F0020F60D03249E8
:101920008A6822F0030213438B60FFF779FB0646B7
:101930002D4B9B6803F00C036268B3EB820F16D04B
:10194000FFF76EFB801B41F288339842F0D90320E9
:10195000B8E7254A126812F4003FE0D10120B1E750
:10196000214A126812F0007FD9D10120AAE71D4B4D
:101970001B6803F00F03AB4209D9EAB2194B1A7086
:101980001B6803F00F03AB4201D001209AE72368E4
:1019900013F0040F06D0144A936823F4E053E1686F
:1019A0000B439360236813F0080F07D00E4A936827
:1019B00023F46043216943EAC103936000F030F8E7
:1019C000094B9B68C3F30313084AD35CD840084B08
:1019D00018600020FFF7DAFA002073E70120704753
:1019E00001206FE7003C024000380240C04D000873
:1019F00008000020014B1868704700BF0800002055
:101A000008B5FFF7F7FF044B9B68C3F38223034A33
:101A1000D35CD84008BD00BF00380240D04D00085C
:101A20002DE9F04B5C4B9B6803F00C03082B07D0AF
:101A30000C2B5BD0042B00F0AD805848BDE8F08B38
:101A4000554B5A6802F03F025B6813F4800F2AD0AE
:101A5000514B5B68C3F388131E4600275C010025C9
:101A6000E41A65EB0705A90141EA9461A001001B96
:101A700061EB0501CB0043EA5073C400A01943EBAE
:101A800007014B0243EAD053440220461946002383
:101A9000FEF7DCFF404B5B68C3F3014301335B009F
:101AA000B0FBF3F0CAE73C4B5B68C3F388131E46F8
:101AB00000275C010025E41A65EB0705A90141EA4E
:101AC0009461A001001B61EB0501CB0043EA507358
:101AD000C400A01943EB07018B0243EA9053840230
:101AE000204619460023FEF7B1FFD3E72A4B5A6878
:101AF00002F03F025B6813F4800F28D0264B5B682E
:101B0000C3F388131E4600275C010025E41A65EB29
:101B10000705A90141EA9461A001001B61EB0501E1
:101B2000CB0043EA5073C400A01943EB07014B02FA
:101B300043EAD0534402204619460023FEF786FFAD
:101B4000154B5B68C3F30273B0FBF3F076E7124BFF
:101B50005B68C3F388131E4600275C010025E41A66
:101B600065EB0705A90141EA9461A001001B61EB47
:101B70000501CB0043EA5073C400A01943EB0701F1
:101B80008B0243EA90538402204619460023FEF755
:101B90005DFFD5E7024851E7003802400024F40019
:101BA00000127A0070B582B00446036813F0010F8A
:101BB00041D0A64B9B6803F00C03042B32D0A34BFF
:101BC0009B6803F00C03082B27D0A04B9B6803F005
:101BD0000C030C2B59D06368B3F5803F5BD0B3F591
:101BE000A02F5ED0994B1A6822F480321A601A68CE
:101BF00022F480221A606368002B5CD0FFF710FA91
:101C00000546924B1B6813F4003F14D1FFF708FA06
:101C1000401B6428F5D903209DE18C4B5B6813F4CD
:101C2000800FD2D0894B1B6813F4003F03D0636848
:101C3000002B00F08D81236813F0020F67D0834BD7
:101C40009B6813F00C0F4AD0804B9B6803F00C0389
:101C5000082B3FD07D4B9B6803F00C030C2B48D026
:101C6000E368002B74D07A4B01221A60FFF7D8F991
:101C70000546764B1B6813F0020F60D1FFF7D0F9D1
:101C8000401B0228F5D9032065E1704B5B6813F413
:101C9000800FA0D0C6E76D4A136843F48033136009
:101CA000A9E76A4B1A6842F480221A601A6842F463
:101CB00080321A609FE7FFF7B3F90546634B1B6854
:101CC00013F4003FB7D0FFF7ABF9401B6428F5D9F8
:101CD000032040E15D4B5B6813F4800FBAD15B4B8E
:101CE0001B6813F0020F0AD0E368012B07D0012014
:101CF00031E1564B5B6813F4800FB1D1EFE7534AE3
:101D0000136823F0F803216943EAC10313602368D1
:101D100013F0080F40D0636963B34E4B01221A6081
:101D2000FFF77EF90546494B5B6F13F0020F33D185
:101D3000FFF776F9401B0228F5D903200BE1434A4F
:101D4000136823F0F803216943EAC1031360DEE757
:101D50003F4B00221A60FFF763F905463B4B1B68B7
:101D600013F0020FD3D0FFF75BF9401B0228F5D91F
:101D70000320F0E0374B00221A60FFF751F90546C7
:101D8000324B5B6F13F0020F06D0FFF749F9401B8F
:101D90000228F5D90320DEE0236813F0040F79D080
:101DA0002A4B1B6C13F0805F33D100230193274B28
:101DB0001A6C42F080521A641B6C03F0805301933A
:101DC000019B0125244B1B6813F4807F23D0A3685B
:101DD000012B34D0052B41D01C4B1A6F22F001028D
:101DE0001A671A6F22F004021A67A368002B3FD00B
:101DF000FFF716F90646154B1B6F13F0020F48D17B
:101E0000FFF70EF9801B41F288339842F3D9032083
:101E1000A1E00025D6E7104A136843F480731360ED
:101E2000FFF7FEF806460C4B1B6813F4807FCED1FB
:101E3000FFF7F6F8801B0228F5D903208BE0034A50
:101E4000136F43F001031367CFE700BF0038024070
:101E500000004742800E474200700040404B1A6F1E
:101E600042F004021A671A6F42F001021A67BCE7D7
:101E7000FFF7D6F806463A4B1B6F13F0020F08D057
:101E8000FFF7CEF8801B41F288339842F3D9032044
:101E900061E0E5B9A369002B5CD0314A926802F099
:101EA0000C02082A59D0022B17D02E4B00221A60A0
:101EB000FFF7B6F804462A4B1B6813F0007F45D0A5
:101EC000FFF7AEF8001B0228F5D9032043E0244AAF
:101ED000136C23F080531364DCE7224B00221A605A
:101EE000FFF79EF805461E4B1B6813F0007F06D0D7
:101EF000FFF796F8401B0228F5D903202BE0E36991
:101F0000226A1343626A43EA8213A26A5208013AC0
:101F100043EA0243E26A43EA0263226B43EA027342
:101F20000F4A53600F4B01221A60FFF779F80446FD
:101F30000B4B1B6813F0007F06D1FFF771F8001BF5
:101F40000228F5D9032006E0002004E0002002E08A
:101F5000012000E0002002B070BD0120FBE700BFBF
:101F60000038024060004742F8B505460F46164665
:101F70001C463BE02CB1FFF753F8069BC01AA04269
:101F800034D32A68536823F0E00353606B68B3F5D9
:101F9000827F0BD0AB6AB3F5005F14D0012385F8C4
:101FA0005130002385F85030032027E0AB68B3F5AB
:101FB000004F02D0B3F5806FECD12A68136823F08C
:101FC00040031360E6E72A68136823F400531B04F8
:101FD0001B0C13602A68136843F400531360DDE799
:101FE0000123B34209D0B4F1FF3FC3D12B689B68F2
:101FF00037EA0303F4D00023F3E70020F8BD10B55F
:1020000082B0044600920B4600228021FFF7ACFF0D
:10201000034610B9184602B010BD636D43F02003AB
:1020200063650323F6E700283BD010B50446002380
:10203000836290F85130002B2ED0022384F8513067
:102040002268136823F0400313606368A268134397
:10205000E26813432269134362691343A26902F4DD
:1020600000721343E2691343226A1343A16A226890
:102070000B431360638B03F00403616A22680B4314
:1020800053602268D36923F40063D3610020606544
:10209000012384F8513010BD80F8503000F076FDF7
:1020A000CBE7012070472DE9F04184B01E4690F83F
:1020B0005030012B00F0C88004460D4690460123A5
:1020C00080F85030FEF7ACFF074694F85130DBB291
:1020D000012B0AD00223012284F85120002284F827
:1020E0005020184604B0BDE8F081002D00F0A48017
:1020F000B8F1000F00F0A280032384F851300023D0
:1021000063652563A4F83480A4F83680A363A387AD
:10211000E38763642364A368B3F5004F1BD023688F
:102120001A6812F0400F03D11A6842F040021A6098
:10213000E368B3F5006F14D063681BB1E38E9BB204
:10214000012B3ED1236815F8012B1A73E38E013B56
:102150009BB2E38635E02268136843F48043136042
:10216000DDE763681BB1E38E9BB2012B0DD12368C1
:1021700035F8022BDA60E38E013B9BB2E38604E084
:10218000002E5DD0B6F1FF3F0FD1E38E9BB27BB343
:1021900023689A6812F0020FF2D035F8022BDA6049
:1021A000E38E013B9BB2E386EFE7FEF739FFC01BEE
:1021B000B042EAD303238EE7002E43D0B6F1FF3FAF
:1021C0000FD1E38E9BB29BB123689A6812F0020F85
:1021D000F2D015F8012B1A73E38E013B9BB2E38614
:1021E000EFE7FEF71DFFC01BB042EAD3032372E7FF
:1021F00000973346012202212046FFF7B5FE08B1C1
:10220000032368E73A4631462046FFF7F8FE0346C7
:1022100018B12023636501235DE7A26832B90392F8
:102220002268D168039192680392039A626D002A32
:102230003FF451AF01234EE701234CE701234AE766
:10224000032348E7032346E702234AE72DE9F04347
:1022500085B099460C9D90F85030012B00F010810C
:1022600004460F461646012380F85030FEF7D8FE8C
:10227000804694F85130DBB26268012B15D0B2F57C
:10228000827F0AD00223012284F85120002284F8A0
:102290005020184605B0BDE8F083A268002A40F03F
:1022A000E780042B01D00223EDE7002F00F0E2804D
:1022B000002E00F0E180B9F1000F00F0DF8094F80B
:1022C0005130DBB2012B2BD000236365A663A4F849
:1022D0003E90A4F83C902763A4F83690A4F834907C
:1022E0002364636423681A6812F0400F03D11A68EC
:1022F00042F040021A60E368B3F5006F14D06368DF
:102300001BB1E38E9BB2012B07D1236817F8012B79
:102310001A73E38E013B9BB2E3864FF0010961E043
:10232000052384F85130CFE763681BB1E38E9BB27D
:10233000012B07D1236837F8022BDA60E38E013BCB
:102340009BB2E3864FF0010913E0E38F9BB26BB1C0
:1023500023689A6812F0010F08D0DB6826F8023B68
:10236000E38F013B9BB2E3874FF00109B5F1FF3FDB
:102370001CD1E38E9BB21BB9E38F9BB2002B55D0CF
:10238000B9F1000FE1D0E38E9BB2002BDDD02368C2
:102390009A6812F0020FD8D037F8022BDA60E38E79
:1023A000013B9BB2E3864FF00009CEE7FEF738FE13
:1023B000A0EB0800A842DCD3032364E7E38F9BB2C1
:1023C0006BB123689A6812F0010F08D0DB68337094
:1023D000E38F013B9BB2E38701364FF00109B5F172
:1023E000FF3F1BD1E38E9BB213B9E38F9BB2EBB1DE
:1023F000B9F1000FE2D0E38E9BB2002BDED0236850
:102400009A6812F0020FD9D03A781A73E38E013B22
:102410009BB2E38601374FF00009CFE7FEF700FEDD
:10242000A0EB0800A842DDD303232CE7CDF8008001
:102430002B46012202212046FFF796FD08B1032317
:1024400021E7424629462046FFF7D9FD034618B149
:1024500020236365012316E7A268002A7FF413AFE7
:1024600003922268D168039192680392039A0AE763
:10247000022308E7012306E7012304E7012302E71B
:10248000022306E72DE9F04182B004460D461746C7
:102490001E464368B3F5827F19D094F85030012B63
:1024A00000F0A280012384F85030FEF7B9FD804689
:1024B00094F85130DBB2012B15D00220012384F8AF
:1024C0005130002384F8503002B0BDE8F0818368B9
:1024D000002BE2D1042380F85130009613460A46BF
:1024E000FFF7B4FEF0E7002D74D0002F74D0042362
:1024F00084F8513000236365A563A787E7872363CA
:10250000A386E38623646364A368B3F5004F0BD00E
:1025100023681A6812F0400F03D11A6842F0400293
:102520001A60E3685BB128E02268136823F48043F3
:102530001360EDE7002E51D0B6F1FF3F10D1E38FCD
:102540009BB2002B31D023689A6812F0010FF1D0B2
:102550001B7B05F8013BE38F013B9BB2E387EEE772
:10256000FEF75EFDA0EB0800B042E8D30320A5E72C
:10257000002E35D0B6F1FF3F0FD1E38F9BB2A3B150
:1025800023689A6812F0010FF2D0DB6825F8023B4D
:10259000E38F013B9BB2E387EFE7FEF741FDA0EB42
:1025A0000800B042E9D3032088E76368B3F5827F6F
:1025B00003D0636DB3B9002080E7A368B3F5004F83
:1025C00002D0B3F5806FF4D12268136823F0400382
:1025D0001360EEE7012071E701206FE703206DE74C
:1025E00003206BE7012069E702206DE700B585B0A5
:1025F00000F0F0030001C0B243F00C028DF80C2093
:1026000043F008038DF80D3040F00C038DF80E30C8
:1026100040F008008DF80F0064230093042303AA00
:102620004E210348FFF738F805B05DF804FB00BF02
:102630000C02002000B585B000F0F0030001C0B22C
:1026400043F00D028DF80C2043F009038DF80D3096
:1026500040F00D038DF80E3040F009008DF80F00AA
:1026600064230093042303AA4E210348FFF714F8C0
:1026700005B05DF804FB00BF0C02002008B5022085
:10268000FFF7B4FF2820FFF7B1FF0C20FFF7AEFFE4
:102690008020FFF7ABFF08BD10B5044602E001340F
:1026A000FFF7C8FF20780028F9D110BD30B587B0FA
:1026B000054610EE100AFDF70FFFCDE90001094AAB
:1026C000082103A800F070FF002406E006AB2344B5
:1026D00013F80C0CFFF7AEFF0134AC42F6DB07B089
:1026E00030BD00BFD84D000830B589B0002400943B
:1026F000174B1A6B42F080021A631A6B02F08002C9
:102700000092009A01941A6B42F001021A631A6B4C
:1027100002F001020192019A02941A6B42F0020245
:102720001A631B6B03F002030293029B094D2246BE
:1027300040212846FEF7DEFD402303930123049346
:102740000594069403A92846FEF7F6FC09B030BDAF
:10275000003802400004024010B582B040F0400052
:102760008DF804008DF80510094C00224021204608
:10277000FEF7C0FD6423022201A90648FFF793FC7F
:10278000012240212046FEF7B5FD02B010BD00BF7A
:10279000000402406802002070B582B040F0C00022
:1027A00002AC04F8010D0D4D002240212846FEF731
:1027B000A1FD0B4E6423012221463046FFF773FC36
:1027C0006423062207493046FFF75CFE01224021C0
:1027D0002846FEF78FFD02B070BD00BF0004024026
:1027E00068020020C402002008B501213120FFF753
:1027F000B3FF00212D20FFF7AFFF08212D20FFF7A9
:10280000ABFF08BDFEE7000008B51048104B0360A1
:102810004FF48273436000238360C360022202612D
:10282000012242614FF4007282612822C261036278
:10283000436283620A23C362FFF7F5FB00B908BD58
:102840004FF491710348FFF7DDFF00BF68020020DD
:1028500000300140DC4D000808B50C480C4B03600B
:102860000C4B436000238360C3604FF480420261DD
:1028700043618361C3610362FEF780FE00B908BD56
:102880004FF485710448FFF7BDFF00BF0C02002024
:1028900000540040A0860100DC4D000800B595B052
:1028A000002100912E4B1A6C42F080521A641B6C6E
:1028B00003F080530093009B01912A4B1A6842F465
:1028C00040421A601B6803F440430193019B0123BB
:1028D00007934FF48033089302230D934FF4800243
:1028E0000E9204220F92B42210921193129313931A
:1028F00007A8FFF757F938BBFEF790FF40BB0F233F
:10290000029302230393002304934FF4A0530593EF
:102910004FF480530693052102A8FEF7BFFFD8B9F4
:10292000FFF768F8104BA3FB00308009FEF7D8FBD7
:102930000420FEF7EBFB002211464FF0FF30FEF7BC
:102940009BFB15B05DF804FBD7210848FFF75AFF41
:10295000DE210648FFF756FFEC210448FFF752FF3F
:102960000038024000700040D34D6210DC4D00087A
:1029700008B5FEF72FFBFFF791FFFFF7B5FEFFF756
:1029800043FFFFF769FFFFF779FE3948FFF784FE41
:102990004FF4FA60FEF74AFBFFF726FF3220FFF7FD
:1029A000FBFE344B5A78187840EA022000B2324AD3
:1029B0001080DA789D7845EA02252DB22F4A1580DD
:1029C0005A791C7944EA022424B22D4B1C80FDF76D
:1029D00071FD25A3D3E90023FDF7D6FDFDF7E6FF42
:1029E000284E30602846FDF765FD1FA3D3E900237C
:1029F000FDF7CAFDFDF7DAFF234D28602046FDF7FD
:102A000059FD19A3D3E90023FDF7BEFDFDF7CEFF65
:102A10001E4C20608020FFF7E9FD1D48FFF73CFEBB
:102A2000052096ED000AFFF741FE1A48FFF734FE35
:102A30008920FFF7DBFD1848FFF72EFE052095EDF6
:102A4000000AFFF733FEC420FFF7D0FD1348FFF75D
:102A500023FE052094ED000AFFF728FEC820FEF7AC
:102A6000E5FA9BE7AFF30080DE718A8EE4F27F3FE8
:102A7000EC4D0008C402002008020020660200207D
:102A800064020020CC020020C0020020600200206E
:102A9000F84D0008FC4D0008004E0008044E0008E8
:102AA00010B582B000240094214B5A6C42F480424D
:102AB0005A645A6C02F480420092009A01941A6C93
:102AC00042F080521A641B6C03F080530193019B07
:102AD0000320FEF7BFFA224621466FF00B00FEF7F7
:102AE000CBFA224621466FF00A00FEF7C5FA2246CD
:102AF00021466FF00900FEF7BFFA224621466FF02B
:102B00000400FEF7B9FA224621466FF00300FEF7F3
:102B1000B3FA224621466FF00100FEF7ADFA2246D5
:102B200021464FF0FF30FEF7A7FA02B010BD00BFFC
:102B3000003802400268124B9A4200D0704700B53C
:102B400087B04FF440730193122302930123039340
:102B500003230493042305930DEB03010948FEF7B7
:102B6000EBFA00230093084B1A6C42F400121A642B
:102B70001B6C03F400130093009B07B05DF804FB8B
:102B80000054004000040240003802400268114B2B
:102B90009A4200D0704700B587B00021009103F53C
:102BA00084335A6C42F480525A645B6C03F4805351
:102BB0000093009BE02301930223029303910323DC
:102BC00004930523059301A90348FEF7B5FA07B05E
:102BD0005DF804FB00300140000002407047FEE752
:102BE000FEE7FEE7FEE770477047704708B5FEF75F
:102BF0000BFAFEF79CFA08BD0F49D1F8883043F470
:102C00007003C1F888300D4B1A6842F001021A6057
:102C1000002098601A6822F0847222F480321A60D0
:102C2000074A5A601A6822F480221A60D8604FF06E
:102C300000638B60704700BF00ED00E00038024089
:102C400010300024DFF834D0002103E00C4B5B5837
:102C5000435004310B480C4B42189A42F6D30B4AAE
:102C600002E0002342F8043B094B9A42F9D3FFF7F4
:102C7000C3FF00F011F8FFF77BFE70470000022051
:102C80007850000800000020DC010020DC0100205A
:102C9000D4020020FEE7000070B50D4E0D4CA41BC1
:102CA000A4100025A54209D10B4E0C4C02F07CF873
:102CB000A41BA4100025A54205D170BD56F82530EF
:102CC00098470135EEE756F8253098470135F2E789
:102CD00070500008705000087050000874500008D0
:102CE00002440346934200D1704703F8011BF9E701
:102CF0002DE9FF4755EC104B0D9FDDF830A0002D5E
:102D00000E4691461946B8BF22462B4627F02007AB
:102D1000BBBF05F100431D4600232D23B8BF144659
:102D2000462F0B7004D0452F00D10136022100E060
:102D3000032103AB019302AB00933246534645ECAB
:102D4000104B00F0F1FC472F804602D119F0010F23
:102D500026D0462F08EB060911D198F80030302B09
:102D60000AD10022002320462946FEF79FF818B911
:102D7000C6F10106CAF80060DAF800309944002272
:102D8000002320462946FEF791F838B93022039BEC
:102D90004B4505D2591C03911A70F8E7CDF80C90F9
:102DA000039B0E9AA3EB08034046136004B0BDE8F2
:102DB000F087F7B500290446BABF49422D232B23DB
:102DC000092904F8022B437020DD0DF107031F468B
:102DD0000A2691FBF6F506FB15113031092D03F893
:102DE000011C03F1FF32294609DC3031023B02F8B5
:102DF000011CBB42224604D3101A03B0F0BD134697
:102E0000E7E713F8012B04F8012BF2E7302319440C
:102E10008370021DC170EFE72DE9F04F8DB00C46B5
:102E2000DDF8588016461F46054601F035FA03685E
:102E300004931846FDF78AFF00230A93D8F8003060
:102E40000590073323F0070303F1080294F818A054
:102E5000D4F800B0C8F80020D3E90023C4E9122355
:102E6000D4E9128929F000430793CDF818804FF078
:102E7000FF32A74BDDE90601FEF74AF870BB4FF0C1
:102E8000FF32A34BDDE90601FEF724F830BB002238
:102E9000002340464946FEF713F810B12D2384F86D
:102EA00043309C4A9C4BBAF1470F8CBF90469846E2
:102EB00003232BF00402236122604FF000090097E6
:102EC00033460BAA2146284600F0E6F9013040F0CF
:102ED0008D804FF0FF300DB0BDE8F08F42464B467D
:102EE00040464946FEF714F810B18C4A8C4BDAE79D
:102EF00061684B1C4BF480620AA83ED106236360D4
:102F00000023CDE9020309AB009349EC108B0DF1CE
:102F100023032260CDF804A061682846FFF7E8FE8D
:102F20000AF0DF03472B804609D1099BD81C02DB3E
:102F30006268934247DDAAF1020A5FFA8AFABAF19F
:102F4000650F099924D80139524604F150000991BE
:102F5000FFF72FFF0A9A1318012A8146236102DC2A
:102F60002268D10701D5013323619DF82330002B5E
:102F7000A5D02D2384F84330A1E7BAF1670F00F004
:102F80007781BAF1470FBBD10029B9D10123B6E748
:102F9000BAF1660F19D1002963680CDD216113B9FC
:102FA0002268D20702D501330B442361099BA36534
:102FB0004FF00009D9E713B92268D00701D50233D1
:102FC000F3E70123F1E74FF0670ADDE909329342A5
:102FD00005DB22682361D107E8D50133E5E7002B43
:102FE000D4BFC3F1020301231344DEE723685A056B
:102FF00007D42369424631462846B84701302BD1D1
:1030000067E7BAF1650F40F2DC8000220023D4E9C3
:103010001201FDF74BFF002833D00123414A31460E
:103020002846B84701303FF454AFDDE909239A42FE
:1030300002DB2368D8070FD5DDE904233146284693
:10304000B84701303FF445AF4FF0000804F11A09CA
:103050000A9B013B434509DC23689B0700F1038180
:10306000E0680B9B9842B8BF184634E701234A46F4
:1030700031462846B84701303FF42BAF08F101082C
:10308000E6E7099B002B2BDC0123264A3146284624
:10309000B84701303FF41DAF099B23B90A9B13B910
:1030A0002368D907D8D5DDE9042331462846B84737
:1030B00001303FF40EAF4FF0000904F11A0A099BEA
:1030C0005B424B4501DC0A9B94E7012352463146A3
:1030D0002846B84701303FF4FCAE09F10109EEE79C
:1030E0000A9AA36D9A42A8BF1A46002A914607DDA4
:1030F0001346314642462846B84701303FF4E9AE10
:1031000004F11A034FF0000B29EAE979069315E060
:10311000FFFFEF7F0C4E0008084E0008144E000819
:10312000104E0008184E00080123069A3146284622
:10313000B84701303FF4CDAE0BF1010BD4F858A0E5
:10314000AAEB09035B45EFDCDDE909239A42D04491
:1031500015DB2368DA0712D40A9B0999A3EB0A024C
:10316000A3EB010A9245A8BF9246BAF1000F0EDC0C
:103170004FF000082AEAEA7A04F11A0919E0DDE9B9
:10318000042331462846B8470130E5D1A1E653462D
:10319000424631462846B8470130E9D199E6012335
:1031A0004A4631462846B84701303FF492AE08F10E
:1031B0000108DDE909239B1AA3EB0A034345EEDC72
:1031C0004AE70A9A012A01DCDB073AD50123424685
:1031D00031462846B84701303FF47BAEDDE9042391
:1031E00031462846B847013008F101083FF471AE76
:1031F0000A9B002203F1FF3AD4E912010023FDF7F4
:1032000055FEC8B95346424631462846B8470130B4
:103210000ED15EE60123524631462846B8470130BA
:103220003FF457AE08F101080A9B013B4345F1DC2E
:103230004B4604F15002DEE64FF0000804F11A0A92
:10324000F2E70123DFE701234A4631462846B84723
:1032500001303FF43EAE08F10108E3680B9A9B1A77
:103260004345F0DCFCE64FF0000804F11909F4E7EF
:1032700000293FF48BAE0023CDE9020309AB009394
:1032800049EC108B2260CDF804A00DF123032846F1
:10329000FFF72EFD804648E62DE9F04791461F4690
:1032A0008A680B69DDF820809342B8BF1346C9F8DD
:1032B000003091F8432006460C4612B10133C9F89C
:1032C00000302368990642BFD9F800300233C9F8AC
:1032D0000030256815F0060507D104F1190AE368E6
:1032E000D9F800209B1AAB4228DC94F843302268BE
:1032F000003318BF012392062DD404F1430239464E
:103300003046C047013020D02368E568D9F8002056
:1033100003F00603042B08BFAD1AA36822690CBF93
:1033200025EAE57500259342C4BF9B1AED184FF0BE
:1033300000091A344D451AD1002008E001235246F5
:1033400039463046C047013003D14FF0FF30BDE869
:10335000F0870135C3E7E1185A1C302081F843009B
:10336000224494F8451082F843100233C5E7012344
:10337000224639463046C0470130E6D009F10109FE
:10338000D8E700002DE9F04301F1430C0C46097E1B
:1033900085B06E291746064698460C9A00F0B38011
:1033A00022D8632936D00AD8002900F0B9805829DC
:1033B00000F0838004F1420584F8421032E0642971
:1033C00001D06929F6D120681368050603F10401CC
:1033D0002AD51B681160002B03DA2D225B4284F88A
:1033E00043206F480A2239E0732900F09D8008D8F5
:1033F0006F2920D07029DDD1236843F0200323609A
:1034000003E0752917D07829D4D1782384F8453082
:10341000644855E01368191D1B68116004F14205EA
:1034200084F8423001238CE01B68116010F0400FDB
:1034300018BF1BB2CFE713682568181D1060280657
:1034400001D51B6802E06806FBD51B8854486F292C
:1034500014BF0A220822002184F843106568A56081
:10346000002DC0F29580216821F004012160002B1D
:103470003DD1002D40F08E806546082A0BD123688F
:10348000DB0708D5236962689A42DEBF302305F85E
:10349000013C05F1FF35ACEB05032361CDF800805D
:1034A0003B4603AA21463046FFF7F6FE01304DD1D8
:1034B0004FF0FF3005B0BDE8F083394884F845107F
:1034C000136821681D1D1B6815600A060BD5CA0705
:1034D00044BF41F0200121601BB9226822F0200284
:1034E00022601022B7E74D0648BF9BB2EFE7654662
:1034F000B3FBF2F102FB1133C35C05F8013D0B464F
:103500000029F5D1B9E7136825686169181D1060B5
:1035100028061B6801D5196002E06A06FBD51980F0
:10352000002323616546B9E71368191D11601D6802
:10353000626800212846FDF713FC08B1401B60605B
:1035400063682361002384F84330A7E723692A4690
:1035500039463046C0470130AAD023689B0713D4B0
:10356000E068039B9842B8BF1846A3E701234A4688
:1035700039463046C04701309AD00135E368039A96
:103580009B1AAB42F2DCEBE7002504F11909F5E7E1
:10359000002BACD1037884F8423004F142056CE78B
:1035A0001A4E00082B4E00080CB430B5174B0C1EF9
:1035B0009DB01D6808DA8B232B604FF0FF301DB0E3
:1035C000BDE8304002B070474FF40273ADF81430DC
:1035D00014BF04F1FF332346049307934FF6FF73A0
:1035E00002900690ADF81630209A21AB02A9284629
:1035F000019301F05DFA431CBCBF8B232B60002CB0
:10360000DDD0029B00221A70D9E700BF0C00002019
:103610002DE9F74F03690C69A3428046C0F282800E
:10362000013C01F114074FEA840C00F1140657F82D
:10363000245056F8240006EB0C03013507EB0C0967
:103640000193B0FBF5F595B34FF0000A3846B64646
:10365000D34650F8042B93B205FB03A34FEA134A59
:103660009BB2ABEB0303120CDEF800B005FB02A229
:1036700013FA8BF34FEA124A1FFA82FBDEF800209E
:10368000CBEB124202EB23429BB243EA0243814559
:103690004FEA224B4EF8043BDBD256F80C3033B9DC
:1036A000019B043B9E421A4630D3C8F81040404666
:1036B00001F028F8002825DB013530464FF0000CDA
:1036C00057F8042BD0F800E093B2ACEB0303120CD4
:1036D00013FA8EF3C2EB1E4202EB23429BB243EA83
:1036E0000243B9454FEA224C40F8043BE8D256F871
:1036F000242006EB84032AB9043B9E421A460BD3CE
:10370000C8F81040284603B0BDE8F08F1268043BAB
:10371000002ACAD1013CC5E71268043B002AEFD158
:10372000013CEAE70020EEE72DE9F04F57EC106B83
:1037300097B0456A069104460B921293DDF880809B
:10374000CDE900673DB9102000F0B4FD6062C0E92A
:1037500001550560C560636A196851B15A684A60CD
:10376000012393408B60204600F0EBFD636A00224A
:103770001A603B1EBBBF23F00043019300230122CC
:10378000ACBFC8F80030C8F80020AF4BDDF80480AB
:1037900033EA080314D1129A42F20F731360009BAC
:1037A00023B9C8F31300002800F04285219BDFF8FD
:1037B000ACB2002B00F044850BF1030300F03EBDDA
:1037C000DDE900670022002330463946FDF76EFB35
:1037D000814668B1129A01231360219B002B00F0EF
:1037E00024859A4B219A03F1FF3B136000F028BD1A
:1037F00014AA15A947EC106B204600F0FAFFC8F395
:103800000A550490002D7CD0C7F3130343F07F5B6F
:10381000B2464BF4401BA5F2FF35CDF84C90002288
:103820008B4B50465946FCF7F7FC81A3D3E90023A4
:10383000FCF7AAFE80A3D3E90023FCF7EFFC0646C1
:1038400028460F46FCF736FE7DA3D3E90023FCF79C
:103850009BFE02460B4630463946FCF7DFFC064627
:103860000F46FDF76BFB00228246002330463946A7
:10387000FDF726FB48B15046FCF71CFE32463B469E
:10388000FDF714FB08B90AF1FF3ABAF1160F59D83F
:10389000704901EBCA01DDE90023D1E90001FDF720
:1038A0002DFB002850D00AF1FF3A00230F93149B00
:1038B0005D1BB5F1010849BFC5F101030023059364
:1038C0004FF0000858BF0593BAF1000F3EDB00230C
:1038D000D044CDF838A00793069B092B00F29080C6
:1038E000052BC4BF043B0693069BA3F10203CCBF88
:1038F00000250125032B00F28F80DFE803F07D7F98
:103900003171DDE914531D4405F23240202813DDE6
:10391000C0F14000009B08FA00F805F2124023FABB
:1039200000F048EA0000FCF7B5FD01238246A1F152
:10393000F87B013D139372E7009BC0F1200003FA6E
:1039400000F0F0E70123B1E70F90B0E7059BA3EB90
:103950000A030593CAF10003079300230E93BBE704
:1039600001230A930B9B002B59DD02939946666A4B
:1039700000227260042202F114009842716853D947
:10398000204600F0AAFC636A3060B9F10E0FD3F84C
:1039900000B000F2E680002D00F0E3809DED007B9A
:1039A000BAF1000F8DED107B74DD2A4A0AF00F0387
:1039B00002EBC30393ED007B4FEA2A16F0068DED70
:1039C000087B65D5244BDDE91001D3E90823FCF71A
:1039D00005FFCDE9000106F00F0603251E4F4CE060
:1039E00001230A930B9B534403F1010902934B46B5
:1039F000012BB8BF0123BAE70023B2E70023F0E7A9
:103A00000125002306930A954FF0FF330293994650
:103A1000002212230B92AAE701230A93F4E7012361
:103A2000029399461A46F5E7013171605200A2E708
:103A300061436F63A787D23FB3C8608B288AC63FB4
:103A4000FB799F501344D33F0000F07F194E0008CC
:103A50000000F83F784E0008504E0008454E000820
:103A6000F10708D5DDE90801D7E90023FCF78CFD53
:103A7000CDE90801013576100837002EF0D1DDE9D7
:103A80000823DDE90001FCF7A9FECDE900011AE0F9
:103A90000225A3E700F0A080CAF100069F4BA04FCB
:103AA00006F00F0203EBC203D3E90023DDE91001A6
:103AB000FCF76AFDCDE90001361100230225002E36
:103AC0007FD1002BE1D10F9B002B00F08780DDE937
:103AD00000670022934B30463946FDF7F1F9002884
:103AE0007CD0B9F1000F79D0029B002B35DD0AF1B3
:103AF000FF330893394600228B4B3046FCF744FDD8
:103B0000CDE90001029F01352846FCF7D3FCDDE931
:103B10000023FCF739FD0022844BFCF77FFB0546B0
:103B2000A1F15076002F5DD10022814BDDE900012B
:103B3000FCF772FB2A463346CDE90001FDF7DEF9BA
:103B4000002840F088822A4606F10043DDE90001A2
:103B5000FDF7B6F9002840F07C82DDE91023CDE9BD
:103B60000023159B002BC0F25081BAF10E0F00F319
:103B70004C816A4B03EBCA0393ED007B0B9B002B3C
:103B80008DED027B80F2D880B9F1000F00F3D48074
:103B900040F05E820022664B51EC170BFCF7F4FC00
:103BA000DDE90023FDF7A0F94F464E46002840F01E
:103BB000348231230BF101058BF800300AF1010A40
:103BC0002FE2F20705D5D7E90023FCF7DDFC01352C
:103BD00001237610083772E7022574E7CDF820A09C
:103BE0004F4691E74D4B03EBC70353E902010A9B94
:103BF000002B47D002460B4600204E49FCF7EEFD55
:103C00002A463346FCF708FBCDE90C015D46DDE9A9
:103C10000001FDF793F90646FCF74CFC02460B4603
:103C2000DDE90001FCF7F8FA303605F8016BDDE953
:103C30000C23CDE90001FDF743F9002863D1DDE94C
:103C4000002300203749FCF7E7FADDE90C23FDF7F4
:103C500037F9002840F0B780A5EB0B039F427FF7B0
:103C60007CAF0022304BDDE90C01FCF78DFC00221B
:103C7000CDE90C012C4BDDE90001FCF785FCCDE919
:103C80000001C4E72A463346FCF77EFCCDE90C016F
:103C90000BEB07055E46DDE90001FDF74FF907462E
:103CA000FCF708FC303702460B46DDE90001FCF763
:103CB000B3FA06F8017BAE42CDE900014FF00002F5
:103CC00026D11C4BDDE90C01FCF7A8FA02460B4695
:103CD000DDE90001FDF712F9002874D1DDE90C23BC
:103CE00000201449FCF798FA02460B46DDE9000172
:103CF000FDF7E6F800283FF430AF15F8013C302B13
:103D000005F1FF3202D0DDF820A04AE01546F4E7C5
:103D1000054BFCF739FCCDE90001BCE7784E000803
:103D2000504E00080000F03F0000244000001C40FE
:103D3000000014400000E03FDDE900675D46DDE97A
:103D4000022330463946FCF749FDFDF7F7F8804677
:103D5000FCF7B0FBDDE90223FCF716FC02460B463C
:103D60003046394608F13006FCF756FA05F8016B83
:103D7000A5EB0B06B14502460B4639D1FCF74EFACE
:103D8000DDE9022306460F46FDF7B8F8C8B9DDE9BC
:103D9000022330463946FDF789F810B118F0010FBB
:103DA0000FD10499204600F0CCFA0023129A2B7010
:103DB0000AF101031360219B002B00F041821D607A
:103DC0003EE2CDF820A015F8012C392A05F1FF3389
:103DD00008D19B450AD1089B0133089330238BF807
:103DE00000305B461A7801321A708CE71D46EAE70C
:103DF00000229B4BFCF7C8FB0022002306460F461F
:103E0000FDF754F800289AD0CBE70A9A002A00F070
:103E10008B80069A012A6EDC139A002A67D003F27F
:103E20003343079F059D059A01211A4420460592B8
:103E3000984400F026FB0646002D0CDDB8F1000F7B
:103E400009DD4545059A2B46A8BF4346D21A05927F
:103E5000ED1AA8EB0308079BEBB10A9B002B67D078
:103E60008FB131463A46204600F0AAFB049A01463B
:103E70000646204600F00EFB04990890204600F00C
:103E800060FA089B0493079BDA1B04D00499204630
:103E900000F096FB04900121204600F0F2FA0E9B00
:103EA0000746002B00F0D0811A460146204600F05C
:103EB00087FB069B012B074640DC009B002B39D17A
:103EC000019BC3F31303002B36D1019B23F0004366
:103ED0001B0D1B052BB1059B0133059308F1010850
:103EE000012307930E9B002B2AD1012030E0149B65
:103EF000C3F1360395E7079B09F1FF37BB42BFBF0C
:103F0000079B0797FA1A0E9BBBBF9B180E93DF1BEC
:103F10000027B9F1000FB5BF059B059DA3EB09056F
:103F20004B46B8BF00237EE7079F059D0A9E83E7A7
:103F3000079AABE70023D4E7009BD2E7002307935F
:103F40003B6907EB8303186900F04DFAC0F12000CC
:103F5000404410F01F0047D0C0F12003042B3BDD8C
:103F6000059BC0F11C000344059305448044059B58
:103F7000002B05DD1A460499204600F06FFB0490E3
:103F8000B8F1000F05DD39464246204600F066FBD9
:103F900007460F9B53B33946049800F0B3FB002843
:103FA00024DA00230A220499204600F0E1F90A9B52
:103FB00004900AF1FF3A002B00F04D8100233146B6
:103FC0000A22204600F0D4F9029B002B06464FDC63
:103FD000069B022B4CDD11E0C9D0059A1C331A4414
:103FE00005921D449844C2E70346F6E7B9F1000F75
:103FF00038DC069B022B35DDCDF80890029B63B9B7
:1040000039460522204600F0B3F9014607460498D8
:1040100000F078FB00283FF7CCAD0B9B5D466FEAC4
:10402000030A4FF000093946204600F08AF9002EB5
:104030003FF4B7AEB9F1000F05D0B14503D0494602
:10404000204600F07EF93146204600F07AF9A8E6D5
:1040500000273E46E1E7DDF820A03E46A9E500BF87
:10406000000024400A9BCDF80890002B00F0FA8055
:10407000002D05DD31462A46204600F0EFFA0646BF
:10408000079B002B4CD07168204600F026F932695E
:1040900002320546920006F10C010C3000F012F9D4
:1040A00001222946204600F0D9FA009BCDF814B031
:1040B00003F00103B1460793064639460498FFF71B
:1040C000A7FA4946054600F13008049800F01AFBAB
:1040D000324600903946204600F02EFBC368024667
:1040E00003BB01460890049800F00CFB089A0346B5
:1040F00011462046089300F024F9089BA3B9069ABC
:1041000092B9079A82B9B8F1390F29D0009B002BD8
:1041100001DD05F13108059B5D1C83F8008082E715
:104120003046C2E70123E3E7009A002A04DB25D1E9
:10413000069A1ABB079A0ABB002BECDD01220499F0
:10414000204600F08BFA3946049000F0DBFA002894
:1041500003DCE0D118F0010FDDD0B8F1390FD8D170
:10416000059B059A5D1C3923137015F8013C392B0A
:1041700005F1FF324FD00133137054E7059A002B3D
:1041800002F1010506DDB8F1390FE9D008F10108A7
:10419000059BC2E7029A05F8018CA5EB0B0393423D
:1041A00021D000230A220499204600F0E1F8B1450D
:1041B00004904FF000034FF00A024946204605D113
:1041C00000F0D6F881460646059576E700F0D0F86F
:1041D0003146814600230A22204600F0C9F80646EF
:1041E000F2E74FF0000901220499204600F036FA68
:1041F0003946049000F086FA0028B6DC02D118F0A7
:10420000010FB2D115F8013C302B05F1FF327FF4DC
:104210000AAF1546F6E7934505D131230AF1010AA5
:104220008BF80030FFE615469FE7DFF864B007E043
:10423000219BDFF860B01BB10BF10803219A1360DA
:10424000584617B0BDE8F08F069B012B7FF735AEBF
:104250000E9B079349E6029B002B03DC069B022B77
:104260003FF7CCAE5D4639460498FFF7D1F900F12F
:10427000300805F8018B029AA5EB0B039A42B0DDDA
:1042800000230A220499204600F072F80490EAE71D
:10429000184E00083C4E0008044B1B68186A044B7B
:1042A000002808BF1846F030704700BF0C000020FF
:1042B00070000020024B0146186800F045BB00BFAB
:1042C0000C00002010B5431E0A44914200D110BDDD
:1042D00011F8014B03F8014FF7E770B5456A044642
:1042E0000E463DB91020FFF7E5FF6062C0E90155B9
:1042F0000560C560656AEB6883B1636ADB6853F883
:104300002600B8B9012101FA06F56A1D920020467F
:1043100000F0BEFA60B1C0E901650EE0212204217F
:10432000204600F0B5FA636AE860DB68002BE4D150
:10433000002070BD026843F826200023C0E9033343
:10434000F7E770B5446A06460D463CB91020FFF702
:10435000B1FF7062C0E901440460C4603DB1736A9A
:104360006A68DB6853F82210296043F8225070BD58
:104370002DE9F0410D691F4606460C4601F1140C6B
:104380000023DCF8000081B202FB01710F0C000C6D
:1043900002FB007089B2013301EB00419D424FEAFC
:1043A00010474CF8041BECDCD7B1A368AB4212DC1D
:1043B000616830460131FFF790FF2269023204F153
:1043C0000C01804692000C30FFF77CFF21463046FE
:1043D000FFF7B7FF444604EB850301355F612561B4
:1043E0002046BDE8F081020C12040346B2B9030472
:1043F000102013F07F4F04BF1B02083013F0704FE2
:1044000004BF1B01043013F0404F04BF9B00023077
:10441000002B06DB5B0003D5013070470020E8E786
:1044200020207047036813F0070201460BD0DA071B
:1044300023D4980749BF5B089B0801200B605CBF31
:104440000B600220704798B2A8B91B0C102013F023
:10445000FF0F04BF1B0A08301A0704BF1B090430F2
:104460009A0704BF9B080230DA0702D45B0806D023
:1044700001300B6070471046E9E7002070472020AC
:10448000704710B50C460121FFF727FF0122446158
:10449000026110BD2DE9F74F14460A6923699A425B
:1044A000B8BF0B468846BCBFA0461C46D8F8107063
:1044B000D4F81090D8F80830D8F8041007EB0906A3
:1044C000B342B8BF0131FFF708FF00F1140505EB57
:1044D000860E2B460022734516D304F1140208F110
:1044E000140102EB890301EB87070093009B019203
:1044F00093420CD8002E03DD5EF8043D002B5DD006
:10450000066103B0BDE8F08F43F8042BE3E7B2F88F
:1045100000B0BBF1000F23D08946AC464FF0000835
:1045200059F8044BDCF800A0A3B21FFA8AFA0BFB7F
:1045300003A34FEA144ADCF8004043444FEA14480E
:104540000BFB0A8404EB1344E2469BB243EA0443A8
:104550004F454FEA14484AF8043B2BD8CCF8048066
:10456000019BB3F802A00432BAF1000F20D02B68EF
:104570008946A8464FF0000BB9F800C0B8F80240D1
:104580000AFB0C445C44C4469BB243EA04434CF827
:10459000043B59F8043BB8F804B01B0C0AFB03B306
:1045A00003EB14434F454FEA134B05D8C8F80430CA
:1045B00004359BE7D446B3E7E046DDE7013E99E7E3
:1045C0002DE9F843154612F0030206460F4607D0C0
:1045D000013A214C002354F82220FFF7C9FE074678
:1045E000AD1035D0746A3CB91020FFF763FE7062DD
:1045F000C0E901440460C460D6F82480D8F80840BB
:104600004CB940F271213046FFF73BFF0023C8F858
:104610000800044603604FF00008EB070AD539464E
:1046200022463046FFF736FF394681463046FFF7CF
:1046300088FE4F466D100BD0206838B922462146BF
:104640003046FFF727FF2060C0F800800446E4E70B
:104650003846BDE8F88300BF404F00082DE9F04719
:104660000C464FEA621A236949680AEB0309A368FA
:104670000746164609F10105AB4232DB3846FFF723
:104680002CFE0023804600F114011A4653452BDB13
:1046900020692AEAEA7A04F1140316F01F0201EBFA
:1046A0008A0103EB800C25D0C2F1200E00201E6889
:1046B0008A46964030434AF8040B53F8040B9C4555
:1046C00020FA0EF014D8486008B109F10205013D46
:1046D0003846C8F810502146FFF733FE4046BDE883
:1046E000F08701315B00C7E741F823200133CDE7B4
:1046F0005146DCE7043953F8042B41F8042F9C455C
:10470000F9D8E4E703690A699B1A30B50CD1920025
:10471000143014318418114454F8045D51F8042DF8
:10472000954203D005D30123184630BDA042F3D3F0
:10473000FAE74FF0FF33F7E72DE9F0470D4607465C
:10474000114628461446FFF7DDFF061E08D1314604
:104750003846FFF7C2FD0123C0E90436BDE8F08703
:10476000A4BF23462C4638466168A6BF1D460026D6
:104770000126FFF7B2FD2B69C660266905F1140911
:1047800004F1140202EB860709EB830800F114051B
:104790004FF0000E52F804AB59F8044B1EFA8AF1A0
:1047A000A3B2C91A230CC3EB1A4303EB214389B20A
:1047B0004FEA234EC84541EA0343944645F8043B7B
:1047C000E8D8BC4504D355F8043D83B10661C5E77C
:1047D0005CF8041B1EFA81F31A1402EB11429BB21F
:1047E00043EA02434FEA224E45F8043BE9E7013E23
:1047F000E9E72DE9F7430E46012159EC108B1546E8
:10480000FFF76BFDC9F30A540746C9F3130334BB22
:104810000193B8F1000327D002A840F8083DFFF744
:1048200001FE0099F0B1019AC0F1200302FA03F3EE
:104830000B43C2407B610192019BBB61002B14BF03
:10484000022101213961C4B1A4F23344044434602B
:10485000C0F135002860384603B0BDE8F08343F46A
:104860008013D5E77961E7E701A8FFF7DBFD019B3E
:104870007B61012139612030E5E707EB8103A0F27C
:10488000324030601869FFF7AEFDC0EB4110E1E740
:1048900038B502FB01F4214600F056F8054618B180
:1048A00022460021FEF71CFA284638BD38B50546D9
:1048B000002945D051F8043C0C1F002BB8BFE41868
:1048C00000F027FA1F4A1368104633B9636014607A
:1048D0002846BDE8384000F01DBAA3420CD9216833
:1048E0006218934204BF1A685B68636004BF521881
:1048F00022600460ECE713465A680AB1A242FAD972
:1049000019685818A0420BD12068014458188242F7
:104910001960DDD1106852685A6001441960D7E708
:1049200002D90C232B60D3E7206821188A4204BFE8
:1049300011685268626004BF091821605C60C7E7B3
:1049400038BD00BFF801002070B5CD1C25F003056F
:1049500008350C2D38BF0C25002D064601DBA94279
:1049600003D90C233360002070BD00F0D2F9214A36
:104970001468214691B9204C23681BB9304600F0D9
:104980008DF920602946304600F088F9431C24D177
:104990000C233360304600F0BDF9E4E70B685B1B85
:1049A00018D40B2B0FD90B60CD50CC18304600F02B
:1049B000B1F904F10B00231D20F00700C31AD3D076
:1049C0005A42E250D0E78C424B6816BF63601360D6
:1049D0000C46EBE70C464968CCE7C41C24F0030402
:1049E000A04205D0211A304600F058F90130CFD04E
:1049F0002560DBE7F8010020FC0100202DE9F047ED
:104A00008E689E4282460C469046994637D88A89DF
:104A100012F4906F31D0256809696F1A6569022315
:104A200005EB450595FBF3F509F101033B449D4278
:104A300038BF1D46530530D52946FFF785FF06468A
:104A400050B90C23CAF80030A38943F04003A38176
:104A50004FF0FF30BDE8F0873A462169FFF732FC9E
:104A6000A38923F4906343F08003A38126616561E9
:104A70003E44ED1B2660A5604E464E4500D94E468D
:104A800032464146206800F02BF9A3689B1BA360C7
:104A900023681E4426600020DCE72A4600F03BF92C
:104AA00006460028E2D121695046FFF7FFFEC8E71D
:104AB0002DE9F04F9DB0804603938B891D060C466F
:104AC00016460FD50B696BB94021FFF73DFF2060FB
:104AD000206128B90C23C8F800304FF0FF30C7E040
:104AE000402363610023099320238DF8293030236C
:104AF0008DF82A304FF0010B37463D4615F8013B43
:104B00000BB1252B3ED1B7EB060A0BD053463246EC
:104B100021464046FFF772FF013000F0A480099B58
:104B2000534409933B78002B00F09D8000234FF005
:104B3000FF32CDE90523049307938DF853301A9380
:104B40002F46052217F8011B4F48FCF709F9049B73
:104B5000D0B9D90644BF20228DF853201A0744BF8C
:104B60002B228DF853202A782A2A15D0079A2F460F
:104B700000200A25394611F8013B303B092B4DD95D
:104B8000B8B10FE02F46B8E73F4A801A0BFA00F0A1
:104B9000184304903D46D3E7039A111D1268039110
:104BA000002A01DB079204E0524243F0020307921D
:104BB00004933B782E2B0CD17B782A2B33D1039B8B
:104BC0001A1D1B680392002BB8BF4FF0FF3302374A
:104BD00005932E4D397803222846FCF7C1F838B1E9
:104BE0004023401B03FA00F0049B03430137049366
:104BF000397827488DF8281006227E1CFCF7B0F87B
:104C0000002838D0234B13BB039B073323F0070343
:104C100008330393099B4B4409936DE705FB02326C
:104C200001200F46A6E700230137059319460A2500
:104C3000384610F8012B303A092A03D9002BC8D086
:104C40000591C6E705FB012101230746F0E703AB09
:104C500000932246104B04A94046FEF7DDF8B0F160
:104C6000FF3F8146D6D1A3895B063FF536AF099851
:104C70001DB0BDE8F08F03AB00932246064B04A99C
:104C80004046FEF77FFBEAE74C4F0008524F000812
:104C9000564F0008192E0008FD49000838B5064C8B
:104CA000002305460846236000F070F8431C02D13B
:104CB000236803B12B6038BDD002002082B001B957
:104CC00001A942B14BB113780B601278101C18BFC8
:104CD000012002B070471046FBE76FF00100F8E7D3
:104CE000884210B501EB020307D8421E99420AD050
:104CF00011F8014B02F8014FF8E78342F5D981180A
:104D0000D21AD34200D110BD13F8014D01F8014D64
:104D1000F7E770477047F8B5074614460E4621B9C5
:104D20001146BDE8F840FFF70FBE22B9FFF7BEFD00
:104D300025462846F8BD00F021F8A0420FD22146B2
:104D40003846FFF701FE05460028F2D031462246DC
:104D5000FFF7B8FA31463846FFF7A8FDE9E73546D0
:104D6000E7E749B1FF2A85BF8A2303600A704FF045
:104D7000FF3098BF012070470846704751F8043C47
:104D8000181F002BBCBF0B58C0187047044A0549B8
:104D90001368002B08BF0B46184410601846704774
:104DA00000020020D8020020F8B500BFF8BC08BC03
:104DB0009E467047F8B500BFF8BC08BC9E467047D9
:104DC00000000000000000000102030406070809BB
:104DD0000000000001020304256600002E2E2F5360
:104DE00072632F6D61696E2E630000005350495F3E
:104DF0005445535400000000583D000020000000BE
:104E0000593D00005A3D0000494E4600696E66005B
:104E10004E414E006E616E00300030313233343519
:104E20003637383941424344454600303132333415
:104E3000353637383961626364656600496E666984
:104E40006E697479004E614E0000000000000000A1
:104E50000080E03779C34143176E05B5B5B8934676
:104E6000F5F93FE9034F384D321D30F94877825A42
:104E70003CBF737FDD4F1575000000000000F03F60
:104E80000000000000002440000000000000594025
:104E90000000000000408F40000000000088C34078
:104EA00000000000006AF8400000000080842E41ED
:104EB00000000000D01263410000000084D7974139
:104EC0000000000065CDCD41000000205FA002423F
:104ED000000000E876483742000000A2941A6D42B4
:104EE000000040E59C30A2420000901EC4BCD642A7
:104EF00000003426F56B0C430080E03779C3414352
:104F000000A0D8855734764300C84E676DC1AB43C7
:104F1000003D9160E458E143408CB5781DAF1544E5
:104F200050EFE2D6E41A4B4492D54D06CFF08044C0
:104F3000F64AE1C7022DB544B49DD9794378EA44D5
:104F400005000000190000007D000000232D302B1B
:104F50002000686C4C00656667454647004300507A
:104F60004F534958002E00002020202020202020D0
:104F70002028282828282020202020202020202009
:104F80002020202020202020881010101010101029
:104F90001010101010101010040404040404040471
:104FA0000404101010101010104141414141410102
:104FB00001010101010101010101010101010101E1
:104FC00001010110101010101042424242424202F0
:104FD00002020202020202020202020202020202B1
:104FE000020202101010102000000000000000005B
:104FF00000000000000000000000000000000000B1
:1050000000000000000000000000000000000000A0
:105010000000000000000000000000000000000090
:105020000000000000000000000000000000000080
:105030000000000000000000000000000000000070
:105040000000000000000000000000000000000060
:105050000000000000000000000000000000000050
:08506000000000000000000048
:0850680014BAFF7F01000000F3
:04507000F50100083E
:04507400D10100085E
:1050780001000000100000000024F40010000020CF
:105088000000000000000000000000000000000018
:105098000000000000000000000000000000000008
:1050A80000000000000000000000000000000000F8
:1050B80000000000000000000000000000000000E8
:1050C80000000000000000000000000000000000D8
:1050D80000000000000000000000000000000000C8
:1050E8004300000000000000000000000000000075
:1050F80000000000000000000000000000000000A8
:105108004300000000000000000000000000000054
:105118000000000000000000000000000000000087
:105128004300000000000000000000000000000034
:105138000000000000000000000000000000000067
:105148004300000000000000000000000000000014
:105158000000000000000000000000000000000047
:1051680043000000000000000000000000000000F4
:105178000000000000000000000000000000000027
:1051880043000000000000000000000000000000D4
:105198000000000000000000000000000000000007
:1051A80043000000000000000000000000000000B4
:1051B80000000000000000000000000000000000E7
:1051C800634D0008BD4C000800000000674F000850
:1051D800654F0008514F0008514F0008514F000813
:1051E800514F0008514F0008514F0008514F000817
:1051F800514F0008514F0008FFFFFFFFFFFFFFFF5F
:10520800FFFFFFFFFFFF0000010041534349490032
:105218000000000000000000000000000000000086
:10522800000000000000000000004153434949000D
:105238000000000000000000000000000000000066
:0C5248000000000000000000000000005A
:0400000508002C457E
:00000001FF
